{
  "_format": "hh-sol-artifact-1",
  "contractName": "CryptoLottery",
  "sourceName": "contracts/CryptoLottery.sol",
  "abi": [
    {
      "inputs": [],
      "stateMutability": "nonpayable",
      "type": "constructor"
    },
    {
      "anonymous": false,
      "inputs": [],
      "name": "LotteryReset",
      "type": "event"
    },
    {
      "anonymous": false,
      "inputs": [
        {
          "indexed": false,
          "internalType": "uint256",
          "name": "lotteryId",
          "type": "uint256"
        },
        {
          "indexed": false,
          "internalType": "uint256",
          "name": "entryFee",
          "type": "uint256"
        }
      ],
      "name": "LotteryStarted",
      "type": "event"
    },
    {
      "anonymous": false,
      "inputs": [
        {
          "indexed": true,
          "internalType": "address",
          "name": "player",
          "type": "address"
        }
      ],
      "name": "PlayerEntered",
      "type": "event"
    },
    {
      "anonymous": false,
      "inputs": [
        {
          "indexed": true,
          "internalType": "uint256",
          "name": "lotteryId",
          "type": "uint256"
        },
        {
          "indexed": true,
          "internalType": "address",
          "name": "winner",
          "type": "address"
        },
        {
          "indexed": false,
          "internalType": "uint256",
          "name": "amount",
          "type": "uint256"
        },
        {
          "indexed": false,
          "internalType": "uint256",
          "name": "timestamp",
          "type": "uint256"
        }
      ],
      "name": "WinnerSelected",
      "type": "event"
    },
    {
      "inputs": [],
      "name": "enter",
      "outputs": [],
      "stateMutability": "payable",
      "type": "function"
    },
    {
      "inputs": [],
      "name": "entryFee",
      "outputs": [
        {
          "internalType": "uint256",
          "name": "",
          "type": "uint256"
        }
      ],
      "stateMutability": "view",
      "type": "function"
    },
    {
      "inputs": [],
      "name": "getBalance",
      "outputs": [
        {
          "internalType": "uint256",
          "name": "",
          "type": "uint256"
        }
      ],
      "stateMutability": "view",
      "type": "function"
    },
    {
      "inputs": [],
      "name": "getPlayers",
      "outputs": [
        {
          "internalType": "address[]",
          "name": "",
          "type": "address[]"
        }
      ],
      "stateMutability": "view",
      "type": "function"
    },
    {
      "inputs": [
        {
          "internalType": "address",
          "name": "",
          "type": "address"
        }
      ],
      "name": "hasEntered",
      "outputs": [
        {
          "internalType": "bool",
          "name": "",
          "type": "bool"
        }
      ],
      "stateMutability": "view",
      "type": "function"
    },
    {
      "inputs": [],
      "name": "isActive",
      "outputs": [
        {
          "internalType": "bool",
          "name": "",
          "type": "bool"
        }
      ],
      "stateMutability": "view",
      "type": "function"
    },
    {
      "inputs": [],
      "name": "lotteryId",
      "outputs": [
        {
          "internalType": "uint256",
          "name": "",
          "type": "uint256"
        }
      ],
      "stateMutability": "view",
      "type": "function"
    },
    {
      "inputs": [],
      "name": "owner",
      "outputs": [
        {
          "internalType": "address",
          "name": "",
          "type": "address"
        }
      ],
      "stateMutability": "view",
      "type": "function"
    },
    {
      "inputs": [],
      "name": "pickWinner",
      "outputs": [],
      "stateMutability": "nonpayable",
      "type": "function"
    },
    {
      "inputs": [
        {
          "internalType": "uint256",
          "name": "",
          "type": "uint256"
        }
      ],
      "name": "players",
      "outputs": [
        {
          "internalType": "address",
          "name": "",
          "type": "address"
        }
      ],
      "stateMutability": "view",
      "type": "function"
    },
    {
      "inputs": [
        {
          "internalType": "uint256",
          "name": "_entryFee",
          "type": "uint256"
        }
      ],
      "name": "startLottery",
      "outputs": [],
      "stateMutability": "nonpayable",
      "type": "function"
    }
  ],
  "bytecode": "0x6080604052348015600f57600080fd5b50336000806101000a81548173ffffffffffffffffffffffffffffffffffffffff021916908373ffffffffffffffffffffffffffffffffffffffff160217905550600160048190555061128b806100676000396000f3fe60806040526004361061009c5760003560e01c80638b5b9ccc116100645780638b5b9ccc146101765780638da5cb5b146101a1578063c6bec93a146101cc578063e580f47b146101f5578063e97dcb6214610220578063f71d96cb1461022a5761009c565b8063072ea61c146100a157806312065fe0146100cc57806322f3e2d4146100f757806324d70dea146101225780635d495aea1461015f575b600080fd5b3480156100ad57600080fd5b506100b6610267565b6040516100c39190610ad1565b60405180910390f35b3480156100d857600080fd5b506100e161026d565b6040516100ee9190610ad1565b60405180910390f35b34801561010357600080fd5b5061010c610275565b6040516101199190610b07565b60405180910390f35b34801561012e57600080fd5b5061014960048036038101906101449190610b85565b610288565b6040516101569190610b07565b60405180910390f35b34801561016b57600080fd5b506101746102a8565b005b34801561018257600080fd5b5061018b610615565b6040516101989190610c70565b60405180910390f35b3480156101ad57600080fd5b506101b66106a3565b6040516101c39190610ca1565b60405180910390f35b3480156101d857600080fd5b506101f360048036038101906101ee9190610ce8565b6106c7565b005b34801561020157600080fd5b5061020a610815565b6040516102179190610ad1565b60405180910390f35b61022861081b565b005b34801561023657600080fd5b50610251600480360381019061024c9190610ce8565b610a3b565b60405161025e9190610ca1565b60405180910390f35b60035481565b600047905090565b600260009054906101000a900460ff1681565b60056020528060005260406000206000915054906101000a900460ff1681565b60008054906101000a900473ffffffffffffffffffffffffffffffffffffffff1673ffffffffffffffffffffffffffffffffffffffff163373ffffffffffffffffffffffffffffffffffffffff1614610336576040517f08c379a000000000000000000000000000000000000000000000000000000000815260040161032d90610d72565b60405180910390fd5b600260009054906101000a900460ff16610385576040517f08c379a000000000000000000000000000000000000000000000000000000000815260040161037c90610dde565b60405180910390fd5b6000600180549050116103cd576040517f08c379a00000000000000000000000000000000000000000000000000000000081526004016103c490610e4a565b60405180910390fd5b6000444260016040516020016103e593929190610fa9565b6040516020818303038152906040528051906020012060001c90506000600180549050826104139190611011565b905060006001828154811061042b5761042a611042565b5b9060005260206000200160009054906101000a900473ffffffffffffffffffffffffffffffffffffffff16905060004790508173ffffffffffffffffffffffffffffffffffffffff166108fc829081150290604051600060405180830381858888f193505050501580156104a3573d6000803e3d6000fd5b508173ffffffffffffffffffffffffffffffffffffffff166004547f3d210d5ae36955ded2bdf69bd956eb075b7fd07362288c7df1797cd8eb1199bf83426040516104ef929190611071565b60405180910390a36000600260006101000a81548160ff02191690831515021790555060005b6001805490508110156105bc57600560006001838154811061053a57610539611042565b5b9060005260206000200160009054906101000a900473ffffffffffffffffffffffffffffffffffffffff1673ffffffffffffffffffffffffffffffffffffffff1673ffffffffffffffffffffffffffffffffffffffff16815260200190815260200160002060006101000a81549060ff02191690558080600101915050610515565b50600160006105cb9190610a7a565b600460008154809291906105de906110c9565b91905055507fc07cdc0437f4a5523d938e3a96f2e751ce4a8e8784c5ce2316c7f833ac26772060405160405180910390a150505050565b6060600180548060200260200160405190810160405280929190818152602001828054801561069957602002820191906000526020600020905b8160009054906101000a900473ffffffffffffffffffffffffffffffffffffffff1673ffffffffffffffffffffffffffffffffffffffff168152602001906001019080831161064f575b5050505050905090565b60008054906101000a900473ffffffffffffffffffffffffffffffffffffffff1681565b60008054906101000a900473ffffffffffffffffffffffffffffffffffffffff1673ffffffffffffffffffffffffffffffffffffffff163373ffffffffffffffffffffffffffffffffffffffff1614610755576040517f08c379a000000000000000000000000000000000000000000000000000000000815260040161074c90610d72565b60405180910390fd5b600260009054906101000a900460ff16156107a5576040517f08c379a000000000000000000000000000000000000000000000000000000000815260040161079c9061115d565b60405180910390fd5b600160006107b39190610a7a565b6001600260006101000a81548160ff021916908315150217905550806003819055507f42da29f4f7ae27bdc650322fcbe8b195ca17a63b0ae83b04577efe0e3e079c0c60045460035460405161080a929190611071565b60405180910390a150565b60045481565b600260009054906101000a900460ff1661086a576040517f08c379a000000000000000000000000000000000000000000000000000000000815260040161086190610dde565b60405180910390fd5b60035434146108ae576040517f08c379a00000000000000000000000000000000000000000000000000000000081526004016108a5906111c9565b60405180910390fd5b600560003373ffffffffffffffffffffffffffffffffffffffff1673ffffffffffffffffffffffffffffffffffffffff16815260200190815260200160002060009054906101000a900460ff161561093b576040517f08c379a000000000000000000000000000000000000000000000000000000000815260040161093290611235565b60405180910390fd5b6001339080600181540180825580915050600190039060005260206000200160009091909190916101000a81548173ffffffffffffffffffffffffffffffffffffffff021916908373ffffffffffffffffffffffffffffffffffffffff1602179055506001600560003373ffffffffffffffffffffffffffffffffffffffff1673ffffffffffffffffffffffffffffffffffffffff16815260200190815260200160002060006101000a81548160ff0219169083151502179055503373ffffffffffffffffffffffffffffffffffffffff167f4d999952f9aa655a216ee2df5968ca0e670e9582ddc96cfe7d8168114b8ca37f60405160405180910390a2565b60018181548110610a4b57600080fd5b906000526020600020016000915054906101000a900473ffffffffffffffffffffffffffffffffffffffff1681565b5080546000825590600052602060002090810190610a989190610a9b565b50565b5b80821115610ab4576000816000905550600101610a9c565b5090565b6000819050919050565b610acb81610ab8565b82525050565b6000602082019050610ae66000830184610ac2565b92915050565b60008115159050919050565b610b0181610aec565b82525050565b6000602082019050610b1c6000830184610af8565b92915050565b600080fd5b600073ffffffffffffffffffffffffffffffffffffffff82169050919050565b6000610b5282610b27565b9050919050565b610b6281610b47565b8114610b6d57600080fd5b50565b600081359050610b7f81610b59565b92915050565b600060208284031215610b9b57610b9a610b22565b5b6000610ba984828501610b70565b91505092915050565b600081519050919050565b600082825260208201905092915050565b6000819050602082019050919050565b610be781610b47565b82525050565b6000610bf98383610bde565b60208301905092915050565b6000602082019050919050565b6000610c1d82610bb2565b610c278185610bbd565b9350610c3283610bce565b8060005b83811015610c63578151610c4a8882610bed565b9750610c5583610c05565b925050600181019050610c36565b5085935050505092915050565b60006020820190508181036000830152610c8a8184610c12565b905092915050565b610c9b81610b47565b82525050565b6000602082019050610cb66000830184610c92565b92915050565b610cc581610ab8565b8114610cd057600080fd5b50565b600081359050610ce281610cbc565b92915050565b600060208284031215610cfe57610cfd610b22565b5b6000610d0c84828501610cd3565b91505092915050565b600082825260208201905092915050565b7f4e6f7420617574686f72697a6564000000000000000000000000000000000000600082015250565b6000610d5c600e83610d15565b9150610d6782610d26565b602082019050919050565b60006020820190508181036000830152610d8b81610d4f565b9050919050565b7f4c6f7474657279206973206e6f74206163746976650000000000000000000000600082015250565b6000610dc8601583610d15565b9150610dd382610d92565b602082019050919050565b60006020820190508181036000830152610df781610dbb565b9050919050565b7f4e6f20706c6179657273206a6f696e6564000000000000000000000000000000600082015250565b6000610e34601183610d15565b9150610e3f82610dfe565b602082019050919050565b60006020820190508181036000830152610e6381610e27565b9050919050565b6000819050919050565b610e85610e8082610ab8565b610e6a565b82525050565b600081549050919050565b600081905092915050565b60008190508160005260206000209050919050565b610ebf81610b47565b82525050565b6000610ed18383610eb6565b60208301905092915050565b60008160001c9050919050565b600073ffffffffffffffffffffffffffffffffffffffff82169050919050565b6000610f1d610f1883610edd565b610eea565b9050919050565b6000610f308254610f0a565b9050919050565b6000600182019050919050565b6000610f4f82610e8b565b610f598185610e96565b9350610f6483610ea1565b8060005b83811015610f9c57610f7982610f24565b610f838882610ec5565b9750610f8e83610f37565b925050600181019050610f68565b5085935050505092915050565b6000610fb58286610e74565b602082019150610fc58285610e74565b602082019150610fd58284610f44565b9150819050949350505050565b7f4e487b7100000000000000000000000000000000000000000000000000000000600052601260045260246000fd5b600061101c82610ab8565b915061102783610ab8565b92508261103757611036610fe2565b5b828206905092915050565b7f4e487b7100000000000000000000000000000000000000000000000000000000600052603260045260246000fd5b60006040820190506110866000830185610ac2565b6110936020830184610ac2565b9392505050565b7f4e487b7100000000000000000000000000000000000000000000000000000000600052601160045260246000fd5b60006110d482610ab8565b91507fffffffffffffffffffffffffffffffffffffffffffffffffffffffffffffffff82036111065761110561109a565b5b600182019050919050565b7f4c6f747465727920616c72656164792061637469766500000000000000000000600082015250565b6000611147601683610d15565b915061115282611111565b602082019050919050565b600060208201905081810360008301526111768161113a565b9050919050565b7f496e636f7272656374204554482073656e740000000000000000000000000000600082015250565b60006111b3601283610d15565b91506111be8261117d565b602082019050919050565b600060208201905081810360008301526111e2816111a6565b9050919050565b7f416c726561647920656e74657265642074686973206c6f747465727900000000600082015250565b600061121f601c83610d15565b915061122a826111e9565b602082019050919050565b6000602082019050818103600083015261124e81611212565b905091905056fea26469706673582212201fdf27b27524c791fd08f2fbda86f75523a4ab82270f6342fe2f595f4d49facd64736f6c634300081c0033",
  "linkReferences": {},
  "deployedLinkReferences": {}
}