{
  "_format": "hh-sol-artifact-1",
  "contractName": "CryptoLottery",
  "sourceName": "contracts/CryptoLottery.sol",
  "abi": [
    {
      "inputs": [],
      "stateMutability": "nonpayable",
      "type": "constructor"
    },
    {
      "anonymous": false,
      "inputs": [],
      "name": "LotteryReset",
      "type": "event"
    },
    {
      "anonymous": false,
      "inputs": [
        {
          "indexed": false,
          "internalType": "uint256",
          "name": "lotteryId",
          "type": "uint256"
        },
        {
          "indexed": false,
          "internalType": "uint256",
          "name": "entryFee",
          "type": "uint256"
        }
      ],
      "name": "LotteryStarted",
      "type": "event"
    },
    {
      "anonymous": false,
      "inputs": [
        {
          "indexed": true,
          "internalType": "address",
          "name": "player",
          "type": "address"
        }
      ],
      "name": "PlayerEntered",
      "type": "event"
    },
    {
      "anonymous": false,
      "inputs": [
        {
          "indexed": true,
          "internalType": "address",
          "name": "winner",
          "type": "address"
        },
        {
          "indexed": false,
          "internalType": "uint256",
          "name": "amount",
          "type": "uint256"
        }
      ],
      "name": "WinnerSelected",
      "type": "event"
    },
    {
      "inputs": [],
      "name": "enter",
      "outputs": [],
      "stateMutability": "payable",
      "type": "function"
    },
    {
      "inputs": [],
      "name": "entryFee",
      "outputs": [
        {
          "internalType": "uint256",
          "name": "",
          "type": "uint256"
        }
      ],
      "stateMutability": "view",
      "type": "function"
    },
    {
      "inputs": [],
      "name": "getBalance",
      "outputs": [
        {
          "internalType": "uint256",
          "name": "",
          "type": "uint256"
        }
      ],
      "stateMutability": "view",
      "type": "function"
    },
    {
      "inputs": [],
      "name": "getPlayers",
      "outputs": [
        {
          "internalType": "address[]",
          "name": "",
          "type": "address[]"
        }
      ],
      "stateMutability": "view",
      "type": "function"
    },
    {
      "inputs": [],
      "name": "isActive",
      "outputs": [
        {
          "internalType": "bool",
          "name": "",
          "type": "bool"
        }
      ],
      "stateMutability": "view",
      "type": "function"
    },
    {
      "inputs": [],
      "name": "lotteryId",
      "outputs": [
        {
          "internalType": "uint256",
          "name": "",
          "type": "uint256"
        }
      ],
      "stateMutability": "view",
      "type": "function"
    },
    {
      "inputs": [],
      "name": "owner",
      "outputs": [
        {
          "internalType": "address",
          "name": "",
          "type": "address"
        }
      ],
      "stateMutability": "view",
      "type": "function"
    },
    {
      "inputs": [],
      "name": "pickWinner",
      "outputs": [],
      "stateMutability": "nonpayable",
      "type": "function"
    },
    {
      "inputs": [
        {
          "internalType": "uint256",
          "name": "",
          "type": "uint256"
        }
      ],
      "name": "players",
      "outputs": [
        {
          "internalType": "address",
          "name": "",
          "type": "address"
        }
      ],
      "stateMutability": "view",
      "type": "function"
    },
    {
      "inputs": [
        {
          "internalType": "uint256",
          "name": "_entryFee",
          "type": "uint256"
        }
      ],
      "name": "startLottery",
      "outputs": [],
      "stateMutability": "nonpayable",
      "type": "function"
    }
  ],
  "bytecode": "0x6080604052348015600f57600080fd5b50336000806101000a81548173ffffffffffffffffffffffffffffffffffffffff021916908373ffffffffffffffffffffffffffffffffffffffff1602179055506001600481905550610fbb806100676000396000f3fe6080604052600436106100915760003560e01c80638da5cb5b116100595780638da5cb5b14610159578063c6bec93a14610184578063e580f47b146101ad578063e97dcb62146101d8578063f71d96cb146101e257610091565b8063072ea61c1461009657806312065fe0146100c157806322f3e2d4146100ec5780635d495aea146101175780638b5b9ccc1461012e575b600080fd5b3480156100a257600080fd5b506100ab61021f565b6040516100b891906108c6565b60405180910390f35b3480156100cd57600080fd5b506100d6610225565b6040516100e391906108c6565b60405180910390f35b3480156100f857600080fd5b5061010161022d565b60405161010e91906108fc565b60405180910390f35b34801561012357600080fd5b5061012c610240565b005b34801561013a57600080fd5b506101436104ef565b6040516101509190610a07565b60405180910390f35b34801561016557600080fd5b5061016e61057d565b60405161017b9190610a38565b60405180910390f35b34801561019057600080fd5b506101ab60048036038101906101a69190610a84565b6105a1565b005b3480156101b957600080fd5b506101c26106ef565b6040516101cf91906108c6565b60405180910390f35b6101e06106f5565b005b3480156101ee57600080fd5b5061020960048036038101906102049190610a84565b610830565b6040516102169190610a38565b60405180910390f35b60035481565b600047905090565b600260009054906101000a900460ff1681565b60008054906101000a900473ffffffffffffffffffffffffffffffffffffffff1673ffffffffffffffffffffffffffffffffffffffff163373ffffffffffffffffffffffffffffffffffffffff16146102ce576040517f08c379a00000000000000000000000000000000000000000000000000000000081526004016102c590610b0e565b60405180910390fd5b600260009054906101000a900460ff1661031d576040517f08c379a000000000000000000000000000000000000000000000000000000000815260040161031490610b7a565b60405180910390fd5b600060018054905011610365576040517f08c379a000000000000000000000000000000000000000000000000000000000815260040161035c90610be6565b60405180910390fd5b60004442600160405160200161037d93929190610d45565b6040516020818303038152906040528051906020012060001c90506000600180549050826103ab9190610dad565b90506000600182815481106103c3576103c2610dde565b5b9060005260206000200160009054906101000a900473ffffffffffffffffffffffffffffffffffffffff16905060004790508173ffffffffffffffffffffffffffffffffffffffff166108fc829081150290604051600060405180830381858888f1935050505015801561043b573d6000803e3d6000fd5b508173ffffffffffffffffffffffffffffffffffffffff167f75060f9e79552df167b73353fee6237a75bb5ba8ea022f77224e32f152138bcb8260405161048291906108c6565b60405180910390a26000600260006101000a81548160ff021916908315150217905550600460008154809291906104b890610e3c565b91905055507fc07cdc0437f4a5523d938e3a96f2e751ce4a8e8784c5ce2316c7f833ac26772060405160405180910390a150505050565b6060600180548060200260200160405190810160405280929190818152602001828054801561057357602002820191906000526020600020905b8160009054906101000a900473ffffffffffffffffffffffffffffffffffffffff1673ffffffffffffffffffffffffffffffffffffffff1681526020019060010190808311610529575b5050505050905090565b60008054906101000a900473ffffffffffffffffffffffffffffffffffffffff1681565b60008054906101000a900473ffffffffffffffffffffffffffffffffffffffff1673ffffffffffffffffffffffffffffffffffffffff163373ffffffffffffffffffffffffffffffffffffffff161461062f576040517f08c379a000000000000000000000000000000000000000000000000000000000815260040161062690610b0e565b60405180910390fd5b600260009054906101000a900460ff161561067f576040517f08c379a000000000000000000000000000000000000000000000000000000000815260040161067690610ed0565b60405180910390fd5b6001600061068d919061086f565b6001600260006101000a81548160ff021916908315150217905550806003819055507f42da29f4f7ae27bdc650322fcbe8b195ca17a63b0ae83b04577efe0e3e079c0c6004546003546040516106e4929190610ef0565b60405180910390a150565b60045481565b600260009054906101000a900460ff16610744576040517f08c379a000000000000000000000000000000000000000000000000000000000815260040161073b90610b7a565b60405180910390fd5b6003543414610788576040517f08c379a000000000000000000000000000000000000000000000000000000000815260040161077f90610f65565b60405180910390fd5b6001339080600181540180825580915050600190039060005260206000200160009091909190916101000a81548173ffffffffffffffffffffffffffffffffffffffff021916908373ffffffffffffffffffffffffffffffffffffffff1602179055503373ffffffffffffffffffffffffffffffffffffffff167f4d999952f9aa655a216ee2df5968ca0e670e9582ddc96cfe7d8168114b8ca37f60405160405180910390a2565b6001818154811061084057600080fd5b906000526020600020016000915054906101000a900473ffffffffffffffffffffffffffffffffffffffff1681565b508054600082559060005260206000209081019061088d9190610890565b50565b5b808211156108a9576000816000905550600101610891565b5090565b6000819050919050565b6108c0816108ad565b82525050565b60006020820190506108db60008301846108b7565b92915050565b60008115159050919050565b6108f6816108e1565b82525050565b600060208201905061091160008301846108ed565b92915050565b600081519050919050565b600082825260208201905092915050565b6000819050602082019050919050565b600073ffffffffffffffffffffffffffffffffffffffff82169050919050565b600061096e82610943565b9050919050565b61097e81610963565b82525050565b60006109908383610975565b60208301905092915050565b6000602082019050919050565b60006109b482610917565b6109be8185610922565b93506109c983610933565b8060005b838110156109fa5781516109e18882610984565b97506109ec8361099c565b9250506001810190506109cd565b5085935050505092915050565b60006020820190508181036000830152610a2181846109a9565b905092915050565b610a3281610963565b82525050565b6000602082019050610a4d6000830184610a29565b92915050565b600080fd5b610a61816108ad565b8114610a6c57600080fd5b50565b600081359050610a7e81610a58565b92915050565b600060208284031215610a9a57610a99610a53565b5b6000610aa884828501610a6f565b91505092915050565b600082825260208201905092915050565b7f4e6f7420617574686f72697a6564000000000000000000000000000000000000600082015250565b6000610af8600e83610ab1565b9150610b0382610ac2565b602082019050919050565b60006020820190508181036000830152610b2781610aeb565b9050919050565b7f4c6f7474657279206973206e6f74206163746976650000000000000000000000600082015250565b6000610b64601583610ab1565b9150610b6f82610b2e565b602082019050919050565b60006020820190508181036000830152610b9381610b57565b9050919050565b7f4e6f20706c6179657273206a6f696e6564000000000000000000000000000000600082015250565b6000610bd0601183610ab1565b9150610bdb82610b9a565b602082019050919050565b60006020820190508181036000830152610bff81610bc3565b9050919050565b6000819050919050565b610c21610c1c826108ad565b610c06565b82525050565b600081549050919050565b600081905092915050565b60008190508160005260206000209050919050565b610c5b81610963565b82525050565b6000610c6d8383610c52565b60208301905092915050565b60008160001c9050919050565b600073ffffffffffffffffffffffffffffffffffffffff82169050919050565b6000610cb9610cb483610c79565b610c86565b9050919050565b6000610ccc8254610ca6565b9050919050565b6000600182019050919050565b6000610ceb82610c27565b610cf58185610c32565b9350610d0083610c3d565b8060005b83811015610d3857610d1582610cc0565b610d1f8882610c61565b9750610d2a83610cd3565b925050600181019050610d04565b5085935050505092915050565b6000610d518286610c10565b602082019150610d618285610c10565b602082019150610d718284610ce0565b9150819050949350505050565b7f4e487b7100000000000000000000000000000000000000000000000000000000600052601260045260246000fd5b6000610db8826108ad565b9150610dc3836108ad565b925082610dd357610dd2610d7e565b5b828206905092915050565b7f4e487b7100000000000000000000000000000000000000000000000000000000600052603260045260246000fd5b7f4e487b7100000000000000000000000000000000000000000000000000000000600052601160045260246000fd5b6000610e47826108ad565b91507fffffffffffffffffffffffffffffffffffffffffffffffffffffffffffffffff8203610e7957610e78610e0d565b5b600182019050919050565b7f4c6f747465727920616c72656164792061637469766500000000000000000000600082015250565b6000610eba601683610ab1565b9150610ec582610e84565b602082019050919050565b60006020820190508181036000830152610ee981610ead565b9050919050565b6000604082019050610f0560008301856108b7565b610f1260208301846108b7565b9392505050565b7f496e636f7272656374204554482073656e740000000000000000000000000000600082015250565b6000610f4f601283610ab1565b9150610f5a82610f19565b602082019050919050565b60006020820190508181036000830152610f7e81610f42565b905091905056fea2646970667358221220031b072287d3d8fa73ad0f9ba6e700a432ddf306f414ecc9c9101ac7da15f09964736f6c634300081c0033",
  "linkReferences": {},
  "deployedLinkReferences": {}
}