{
  "_format": "hh-sol-artifact-1",
  "contractName": "CryptoLottery",
  "sourceName": "contracts/CryptoLottery.sol",
  "abi": [
    {
      "inputs": [],
      "stateMutability": "nonpayable",
      "type": "constructor"
    },
    {
      "anonymous": false,
      "inputs": [],
      "name": "LotteryReset",
      "type": "event"
    },
    {
      "anonymous": false,
      "inputs": [
        {
          "indexed": false,
          "internalType": "uint256",
          "name": "lotteryId",
          "type": "uint256"
        },
        {
          "indexed": false,
          "internalType": "uint256",
          "name": "entryFee",
          "type": "uint256"
        }
      ],
      "name": "LotteryStarted",
      "type": "event"
    },
    {
      "anonymous": false,
      "inputs": [
        {
          "indexed": true,
          "internalType": "address",
          "name": "player",
          "type": "address"
        }
      ],
      "name": "PlayerEntered",
      "type": "event"
    },
    {
      "anonymous": false,
      "inputs": [
        {
          "indexed": true,
          "internalType": "address",
          "name": "winner",
          "type": "address"
        },
        {
          "indexed": false,
          "internalType": "uint256",
          "name": "amount",
          "type": "uint256"
        }
      ],
      "name": "WinnerSelected",
      "type": "event"
    },
    {
      "inputs": [],
      "name": "enter",
      "outputs": [],
      "stateMutability": "payable",
      "type": "function"
    },
    {
      "inputs": [],
      "name": "entryFee",
      "outputs": [
        {
          "internalType": "uint256",
          "name": "",
          "type": "uint256"
        }
      ],
      "stateMutability": "view",
      "type": "function"
    },
    {
      "inputs": [],
      "name": "getBalance",
      "outputs": [
        {
          "internalType": "uint256",
          "name": "",
          "type": "uint256"
        }
      ],
      "stateMutability": "view",
      "type": "function"
    },
    {
      "inputs": [],
      "name": "getPlayers",
      "outputs": [
        {
          "internalType": "address[]",
          "name": "",
          "type": "address[]"
        }
      ],
      "stateMutability": "view",
      "type": "function"
    },
    {
      "inputs": [
        {
          "internalType": "address",
          "name": "",
          "type": "address"
        }
      ],
      "name": "hasEntered",
      "outputs": [
        {
          "internalType": "bool",
          "name": "",
          "type": "bool"
        }
      ],
      "stateMutability": "view",
      "type": "function"
    },
    {
      "inputs": [],
      "name": "isActive",
      "outputs": [
        {
          "internalType": "bool",
          "name": "",
          "type": "bool"
        }
      ],
      "stateMutability": "view",
      "type": "function"
    },
    {
      "inputs": [],
      "name": "lotteryId",
      "outputs": [
        {
          "internalType": "uint256",
          "name": "",
          "type": "uint256"
        }
      ],
      "stateMutability": "view",
      "type": "function"
    },
    {
      "inputs": [],
      "name": "owner",
      "outputs": [
        {
          "internalType": "address",
          "name": "",
          "type": "address"
        }
      ],
      "stateMutability": "view",
      "type": "function"
    },
    {
      "inputs": [],
      "name": "pickWinner",
      "outputs": [],
      "stateMutability": "nonpayable",
      "type": "function"
    },
    {
      "inputs": [
        {
          "internalType": "uint256",
          "name": "",
          "type": "uint256"
        }
      ],
      "name": "players",
      "outputs": [
        {
          "internalType": "address",
          "name": "",
          "type": "address"
        }
      ],
      "stateMutability": "view",
      "type": "function"
    },
    {
      "inputs": [
        {
          "internalType": "uint256",
          "name": "_entryFee",
          "type": "uint256"
        }
      ],
      "name": "startLottery",
      "outputs": [],
      "stateMutability": "nonpayable",
      "type": "function"
    }
  ],
  "bytecode": "0x6080604052348015600f57600080fd5b50336000806101000a81548173ffffffffffffffffffffffffffffffffffffffff021916908373ffffffffffffffffffffffffffffffffffffffff16021790555060016004819055506111cd806100676000396000f3fe60806040526004361061009c5760003560e01c80638b5b9ccc116100645780638b5b9ccc146101765780638da5cb5b146101a1578063c6bec93a146101cc578063e580f47b146101f5578063e97dcb6214610220578063f71d96cb1461022a5761009c565b8063072ea61c146100a157806312065fe0146100cc57806322f3e2d4146100f757806324d70dea146101225780635d495aea1461015f575b600080fd5b3480156100ad57600080fd5b506100b6610267565b6040516100c39190610a13565b60405180910390f35b3480156100d857600080fd5b506100e161026d565b6040516100ee9190610a13565b60405180910390f35b34801561010357600080fd5b5061010c610275565b6040516101199190610a49565b60405180910390f35b34801561012e57600080fd5b5061014960048036038101906101449190610ac7565b610288565b6040516101569190610a49565b60405180910390f35b34801561016b57600080fd5b506101746102a8565b005b34801561018257600080fd5b5061018b610557565b6040516101989190610bb2565b60405180910390f35b3480156101ad57600080fd5b506101b66105e5565b6040516101c39190610be3565b60405180910390f35b3480156101d857600080fd5b506101f360048036038101906101ee9190610c2a565b610609565b005b34801561020157600080fd5b5061020a610757565b6040516102179190610a13565b60405180910390f35b61022861075d565b005b34801561023657600080fd5b50610251600480360381019061024c9190610c2a565b61097d565b60405161025e9190610be3565b60405180910390f35b60035481565b600047905090565b600260009054906101000a900460ff1681565b60056020528060005260406000206000915054906101000a900460ff1681565b60008054906101000a900473ffffffffffffffffffffffffffffffffffffffff1673ffffffffffffffffffffffffffffffffffffffff163373ffffffffffffffffffffffffffffffffffffffff1614610336576040517f08c379a000000000000000000000000000000000000000000000000000000000815260040161032d90610cb4565b60405180910390fd5b600260009054906101000a900460ff16610385576040517f08c379a000000000000000000000000000000000000000000000000000000000815260040161037c90610d20565b60405180910390fd5b6000600180549050116103cd576040517f08c379a00000000000000000000000000000000000000000000000000000000081526004016103c490610d8c565b60405180910390fd5b6000444260016040516020016103e593929190610eeb565b6040516020818303038152906040528051906020012060001c90506000600180549050826104139190610f53565b905060006001828154811061042b5761042a610f84565b5b9060005260206000200160009054906101000a900473ffffffffffffffffffffffffffffffffffffffff16905060004790508173ffffffffffffffffffffffffffffffffffffffff166108fc829081150290604051600060405180830381858888f193505050501580156104a3573d6000803e3d6000fd5b508173ffffffffffffffffffffffffffffffffffffffff167f75060f9e79552df167b73353fee6237a75bb5ba8ea022f77224e32f152138bcb826040516104ea9190610a13565b60405180910390a26000600260006101000a81548160ff0219169083151502179055506004600081548092919061052090610fe2565b91905055507fc07cdc0437f4a5523d938e3a96f2e751ce4a8e8784c5ce2316c7f833ac26772060405160405180910390a150505050565b606060018054806020026020016040519081016040528092919081815260200182805480156105db57602002820191906000526020600020905b8160009054906101000a900473ffffffffffffffffffffffffffffffffffffffff1673ffffffffffffffffffffffffffffffffffffffff1681526020019060010190808311610591575b5050505050905090565b60008054906101000a900473ffffffffffffffffffffffffffffffffffffffff1681565b60008054906101000a900473ffffffffffffffffffffffffffffffffffffffff1673ffffffffffffffffffffffffffffffffffffffff163373ffffffffffffffffffffffffffffffffffffffff1614610697576040517f08c379a000000000000000000000000000000000000000000000000000000000815260040161068e90610cb4565b60405180910390fd5b600260009054906101000a900460ff16156106e7576040517f08c379a00000000000000000000000000000000000000000000000000000000081526004016106de90611076565b60405180910390fd5b600160006106f591906109bc565b6001600260006101000a81548160ff021916908315150217905550806003819055507f42da29f4f7ae27bdc650322fcbe8b195ca17a63b0ae83b04577efe0e3e079c0c60045460035460405161074c929190611096565b60405180910390a150565b60045481565b600260009054906101000a900460ff166107ac576040517f08c379a00000000000000000000000000000000000000000000000000000000081526004016107a390610d20565b60405180910390fd5b60035434146107f0576040517f08c379a00000000000000000000000000000000000000000000000000000000081526004016107e79061110b565b60405180910390fd5b600560003373ffffffffffffffffffffffffffffffffffffffff1673ffffffffffffffffffffffffffffffffffffffff16815260200190815260200160002060009054906101000a900460ff161561087d576040517f08c379a000000000000000000000000000000000000000000000000000000000815260040161087490611177565b60405180910390fd5b6001339080600181540180825580915050600190039060005260206000200160009091909190916101000a81548173ffffffffffffffffffffffffffffffffffffffff021916908373ffffffffffffffffffffffffffffffffffffffff1602179055506001600560003373ffffffffffffffffffffffffffffffffffffffff1673ffffffffffffffffffffffffffffffffffffffff16815260200190815260200160002060006101000a81548160ff0219169083151502179055503373ffffffffffffffffffffffffffffffffffffffff167f4d999952f9aa655a216ee2df5968ca0e670e9582ddc96cfe7d8168114b8ca37f60405160405180910390a2565b6001818154811061098d57600080fd5b906000526020600020016000915054906101000a900473ffffffffffffffffffffffffffffffffffffffff1681565b50805460008255906000526020600020908101906109da91906109dd565b50565b5b808211156109f65760008160009055506001016109de565b5090565b6000819050919050565b610a0d816109fa565b82525050565b6000602082019050610a286000830184610a04565b92915050565b60008115159050919050565b610a4381610a2e565b82525050565b6000602082019050610a5e6000830184610a3a565b92915050565b600080fd5b600073ffffffffffffffffffffffffffffffffffffffff82169050919050565b6000610a9482610a69565b9050919050565b610aa481610a89565b8114610aaf57600080fd5b50565b600081359050610ac181610a9b565b92915050565b600060208284031215610add57610adc610a64565b5b6000610aeb84828501610ab2565b91505092915050565b600081519050919050565b600082825260208201905092915050565b6000819050602082019050919050565b610b2981610a89565b82525050565b6000610b3b8383610b20565b60208301905092915050565b6000602082019050919050565b6000610b5f82610af4565b610b698185610aff565b9350610b7483610b10565b8060005b83811015610ba5578151610b8c8882610b2f565b9750610b9783610b47565b925050600181019050610b78565b5085935050505092915050565b60006020820190508181036000830152610bcc8184610b54565b905092915050565b610bdd81610a89565b82525050565b6000602082019050610bf86000830184610bd4565b92915050565b610c07816109fa565b8114610c1257600080fd5b50565b600081359050610c2481610bfe565b92915050565b600060208284031215610c4057610c3f610a64565b5b6000610c4e84828501610c15565b91505092915050565b600082825260208201905092915050565b7f4e6f7420617574686f72697a6564000000000000000000000000000000000000600082015250565b6000610c9e600e83610c57565b9150610ca982610c68565b602082019050919050565b60006020820190508181036000830152610ccd81610c91565b9050919050565b7f4c6f7474657279206973206e6f74206163746976650000000000000000000000600082015250565b6000610d0a601583610c57565b9150610d1582610cd4565b602082019050919050565b60006020820190508181036000830152610d3981610cfd565b9050919050565b7f4e6f20706c6179657273206a6f696e6564000000000000000000000000000000600082015250565b6000610d76601183610c57565b9150610d8182610d40565b602082019050919050565b60006020820190508181036000830152610da581610d69565b9050919050565b6000819050919050565b610dc7610dc2826109fa565b610dac565b82525050565b600081549050919050565b600081905092915050565b60008190508160005260206000209050919050565b610e0181610a89565b82525050565b6000610e138383610df8565b60208301905092915050565b60008160001c9050919050565b600073ffffffffffffffffffffffffffffffffffffffff82169050919050565b6000610e5f610e5a83610e1f565b610e2c565b9050919050565b6000610e728254610e4c565b9050919050565b6000600182019050919050565b6000610e9182610dcd565b610e9b8185610dd8565b9350610ea683610de3565b8060005b83811015610ede57610ebb82610e66565b610ec58882610e07565b9750610ed083610e79565b925050600181019050610eaa565b5085935050505092915050565b6000610ef78286610db6565b602082019150610f078285610db6565b602082019150610f178284610e86565b9150819050949350505050565b7f4e487b7100000000000000000000000000000000000000000000000000000000600052601260045260246000fd5b6000610f5e826109fa565b9150610f69836109fa565b925082610f7957610f78610f24565b5b828206905092915050565b7f4e487b7100000000000000000000000000000000000000000000000000000000600052603260045260246000fd5b7f4e487b7100000000000000000000000000000000000000000000000000000000600052601160045260246000fd5b6000610fed826109fa565b91507fffffffffffffffffffffffffffffffffffffffffffffffffffffffffffffffff820361101f5761101e610fb3565b5b600182019050919050565b7f4c6f747465727920616c72656164792061637469766500000000000000000000600082015250565b6000611060601683610c57565b915061106b8261102a565b602082019050919050565b6000602082019050818103600083015261108f81611053565b9050919050565b60006040820190506110ab6000830185610a04565b6110b86020830184610a04565b9392505050565b7f496e636f7272656374204554482073656e740000000000000000000000000000600082015250565b60006110f5601283610c57565b9150611100826110bf565b602082019050919050565b60006020820190508181036000830152611124816110e8565b9050919050565b7f416c726561647920656e74657265642074686973206c6f747465727900000000600082015250565b6000611161601c83610c57565b915061116c8261112b565b602082019050919050565b6000602082019050818103600083015261119081611154565b905091905056fea2646970667358221220a271acf55170bceb376c37770a982dfe8018132817dde487509f03d3f5353f5464736f6c634300081c0033",
  "linkReferences": {},
  "deployedLinkReferences": {}
}